{
  "contractName": "Ballot",
  "abi": [
    {
      "inputs": [
        {
          "internalType": "uint256",
          "name": "numProposals",
          "type": "uint256"
        }
      ],
      "stateMutability": "nonpayable",
      "type": "constructor"
    },
    {
      "inputs": [],
      "name": "state",
      "outputs": [
        {
          "internalType": "enum Ballot.Phase",
          "name": "",
          "type": "uint8"
        }
      ],
      "stateMutability": "view",
      "type": "function"
    },
    {
      "inputs": [
        {
          "internalType": "enum Ballot.Phase",
          "name": "x",
          "type": "uint8"
        }
      ],
      "name": "changeState",
      "outputs": [],
      "stateMutability": "nonpayable",
      "type": "function"
    },
    {
      "inputs": [
        {
          "internalType": "address",
          "name": "voter",
          "type": "address"
        }
      ],
      "name": "register",
      "outputs": [],
      "stateMutability": "nonpayable",
      "type": "function"
    },
    {
      "inputs": [
        {
          "internalType": "uint256",
          "name": "toProposal",
          "type": "uint256"
        }
      ],
      "name": "vote",
      "outputs": [],
      "stateMutability": "nonpayable",
      "type": "function"
    },
    {
      "inputs": [],
      "name": "reqWinner",
      "outputs": [
        {
          "internalType": "uint256",
          "name": "winningProposal",
          "type": "uint256"
        }
      ],
      "stateMutability": "view",
      "type": "function"
    }
  ],
  "bytecode": "0x60806040526000600360006101000a81548160ff021916908360038111156200002d576200002c620001a9565b5b02179055503480156200003f57600080fd5b5060405162000c9f38038062000c9f833981810160405281019062000065919062000218565b336000806101000a81548173ffffffffffffffffffffffffffffffffffffffff021916908373ffffffffffffffffffffffffffffffffffffffff1602179055506002600160008060009054906101000a900473ffffffffffffffffffffffffffffffffffffffff1673ffffffffffffffffffffffffffffffffffffffff1673ffffffffffffffffffffffffffffffffffffffff1681526020019081526020016000206000018190555060005b8181101562000173576002604051806020016040528060008152509080600181540180825580915050600190039060005260206000200160009091909190915060008201518160000155505080806200016a9062000279565b91505062000111565b506001600360006101000a81548160ff021916908360038111156200019d576200019c620001a9565b5b021790555050620002c6565b7f4e487b7100000000000000000000000000000000000000000000000000000000600052602160045260246000fd5b600080fd5b6000819050919050565b620001f281620001dd565b8114620001fe57600080fd5b50565b6000815190506200021281620001e7565b92915050565b600060208284031215620002315762000230620001d8565b5b6000620002418482850162000201565b91505092915050565b7f4e487b7100000000000000000000000000000000000000000000000000000000600052601160045260246000fd5b60006200028682620001dd565b91507fffffffffffffffffffffffffffffffffffffffffffffffffffffffffffffffff8203620002bb57620002ba6200024a565b5b600182019050919050565b6109c980620002d66000396000f3fe608060405234801561001057600080fd5b50600436106100575760003560e01c80630121b93f1461005c578063268f1153146100785780634420e48614610094578063508b30c9146100b0578063c19d93fb146100ce575b600080fd5b61007660048036038101906100719190610625565b6100ec565b005b610092600480360381019061008d9190610677565b6102aa565b005b6100ae60048036038101906100a99190610702565b61036e565b005b6100b8610507565b6040516100c5919061073e565b60405180910390f35b6100d66105d7565b6040516100e391906107d0565b60405180910390f35b600280600381111561010157610100610759565b5b600360009054906101000a900460ff16600381111561012357610122610759565b5b1461012d57600080fd5b6000600160003373ffffffffffffffffffffffffffffffffffffffff1673ffffffffffffffffffffffffffffffffffffffff16815260200190815260200160002060000154116101b2576040517f08c379a00000000000000000000000000000000000000000000000000000000081526004016101a990610848565b60405180910390fd5b6000600160003373ffffffffffffffffffffffffffffffffffffffff1673ffffffffffffffffffffffffffffffffffffffff168152602001908152602001600020604051806060016040529081600082015481526020016001820160009054906101000a900460ff16151515158152602001600282015481525050905080602001518061024457506002805490508310155b1561024e57600080fd5b60018160200190151590811515815250508281604001818152505080600001516002848154811061028257610281610868565b5b90600052602060002001600001600082825461029e91906108c6565b92505081905550505050565b60008054906101000a900473ffffffffffffffffffffffffffffffffffffffff1673ffffffffffffffffffffffffffffffffffffffff163373ffffffffffffffffffffffffffffffffffffffff161461030257600080fd5b600360009054906101000a900460ff16600381111561032457610323610759565b5b81600381111561033757610336610759565b5b1161034157600080fd5b80600360006101000a81548160ff0219169083600381111561036657610365610759565b5b021790555050565b600180600381111561038357610382610759565b5b600360009054906101000a900460ff1660038111156103a5576103a4610759565b5b146103af57600080fd5b60008054906101000a900473ffffffffffffffffffffffffffffffffffffffff1673ffffffffffffffffffffffffffffffffffffffff163373ffffffffffffffffffffffffffffffffffffffff161461040757600080fd5b600160008373ffffffffffffffffffffffffffffffffffffffff1673ffffffffffffffffffffffffffffffffffffffff16815260200190815260200160002060010160009054906101000a900460ff161561046157600080fd5b60018060008473ffffffffffffffffffffffffffffffffffffffff1673ffffffffffffffffffffffffffffffffffffffff168152602001908152602001600020600001819055506000600160008473ffffffffffffffffffffffffffffffffffffffff1673ffffffffffffffffffffffffffffffffffffffff16815260200190815260200160002060010160006101000a81548160ff0219169083151502179055505050565b6000600380600381111561051e5761051d610759565b5b600360009054906101000a900460ff1660038111156105405761053f610759565b5b1461054a57600080fd5b6000805b6002805490508110156105bf5781600282815481106105705761056f610868565b5b906000526020600020016000015411156105ac576002818154811061059857610597610868565b5b906000526020600020016000015491508093505b80806105b79061091c565b91505061054e565b5060038110156105d2576105d1610964565b5b505090565b600360009054906101000a900460ff1681565b600080fd5b6000819050919050565b610602816105ef565b811461060d57600080fd5b50565b60008135905061061f816105f9565b92915050565b60006020828403121561063b5761063a6105ea565b5b600061064984828501610610565b91505092915050565b6004811061065f57600080fd5b50565b60008135905061067181610652565b92915050565b60006020828403121561068d5761068c6105ea565b5b600061069b84828501610662565b91505092915050565b600073ffffffffffffffffffffffffffffffffffffffff82169050919050565b60006106cf826106a4565b9050919050565b6106df816106c4565b81146106ea57600080fd5b50565b6000813590506106fc816106d6565b92915050565b600060208284031215610718576107176105ea565b5b6000610726848285016106ed565b91505092915050565b610738816105ef565b82525050565b6000602082019050610753600083018461072f565b92915050565b7f4e487b7100000000000000000000000000000000000000000000000000000000600052602160045260246000fd5b6004811061079957610798610759565b5b50565b60008190506107aa82610788565b919050565b60006107ba8261079c565b9050919050565b6107ca816107af565b82525050565b60006020820190506107e560008301846107c1565b92915050565b600082825260208201905092915050565b7f4e6f742061205265676973746572656420566f74657200000000000000000000600082015250565b60006108326016836107eb565b915061083d826107fc565b602082019050919050565b6000602082019050818103600083015261086181610825565b9050919050565b7f4e487b7100000000000000000000000000000000000000000000000000000000600052603260045260246000fd5b7f4e487b7100000000000000000000000000000000000000000000000000000000600052601160045260246000fd5b60006108d1826105ef565b91506108dc836105ef565b9250827fffffffffffffffffffffffffffffffffffffffffffffffffffffffffffffffff0382111561091157610910610897565b5b828201905092915050565b6000610927826105ef565b91507fffffffffffffffffffffffffffffffffffffffffffffffffffffffffffffffff820361095957610958610897565b5b600182019050919050565b7f4e487b7100000000000000000000000000000000000000000000000000000000600052600160045260246000fdfea26469706673582212200dcb8fad91cb4818ac7d905b3577f7f1753e17ec9b1be94dfc938187a645b2e664736f6c634300080f0033",
  "immutableReferences": {},
  "source": "// SPDX-License-Identifier: MIT\r\npragma solidity >=0.4.22 <0.9.0;\r\n\r\ncontract Ballot {\r\n    struct Voter { \r\n        uint weight;  \r\n        bool voted;  \r\n        uint vote;\r\n    }\r\n    struct Proposal { \r\n        uint voteCount;\r\n    }\r\n\r\n    address chairperson;\r\n    mapping(address => Voter) voters;\r\n    Proposal[] proposals;\r\n\r\n    enum Phase {Init, Regs, Vote, Done} \r\n\r\n    Phase public state = Phase.Init;  \r\n\r\n    modifier validPhase(Phase reqPhase) {\r\n        require(state == reqPhase); \r\n        _;\r\n    }\r\n\r\n    modifier onlyChair() { \r\n        require(msg.sender == chairperson);\r\n        _;\r\n    }\r\n\r\n    modifier validVoter() {   //   \r\n        require(voters[msg.sender].weight > 0, \"Not a Registered Voter\");\r\n        _;\r\n    }\r\n\r\n    constructor (uint numProposals) public { \r\n        chairperson = msg.sender;  \r\n        voters[chairperson].weight = 2; \r\n        for (uint prop = 0; prop < numProposals; prop++) { \r\n            proposals.push(Proposal(0));\r\n        }\r\n        state = Phase.Regs; \r\n    }\r\n\r\n    function changeState(Phase x) onlyChair public {  \r\n        require (x > state);  \r\n        state = x;\r\n    }\r\n\r\n    function register(address voter) public validPhase(Phase.Regs) onlyChair { \r\n        require (!voters[voter].voted);\r\n        voters[voter].weight = 1;\r\n        voters[voter].voted = false;\r\n    }\r\n\r\n    function vote(uint toProposal) public validPhase(Phase.Vote) validVoter {\r\n        Voter memory sender = voters[msg.sender]; \r\n        if (sender.voted || toProposal >= proposals.length) revert(); \r\n        sender.voted = true;\r\n        sender.vote = toProposal;\r\n        proposals[toProposal].voteCount += sender.weight;\r\n    }\r\n\r\n    function reqWinner() public validPhase(Phase.Done) view returns (uint winningProposal) {\r\n        uint winningVoteCount = 0;\r\n        for (uint prop = 0; prop < proposals.length; prop++) {\r\n            if (proposals[prop].voteCount > winningVoteCount) {\r\n                winningVoteCount = proposals[prop].voteCount;\r\n                winningProposal = prop;\r\n            }\r\n        }\r\n\r\n        assert(winningVoteCount>=3); \r\n\r\n    }\r\n\r\n}",
  "sourcePath": "C:\\Users\\sheec\\Ballot-Dapp\\ballot-contract\\contracts\\Ballot.sol",
  "compiler": {
    "name": "solc",
    "version": "0.8.15+commit.e14f2714.Emscripten.clang"
  },
  "schemaVersion": "3.4.7",
  "updatedAt": "2022-06-30T18:45:58.331Z",
  "devdoc": {
    "kind": "dev",
    "methods": {},
    "version": 1
  },
  "userdoc": {
    "kind": "user",
    "methods": {},
    "version": 1
  }
}